:1000000021C03BC03AC039C038C037C036C035C047
:1000100034C033C032C031C030C02FC0D3C02DC0B7
:100020002CC02BC0A7C029C028C027C026C025C00F
:1000300024C023C012C214C216C218C21AC21CC2E3
:100040001EC220C211241FBECFEFD4E0DEBFCDBF41
:1000500011E0A0E0B1E0EAECF7E002C005900D92FB
:10006000A230B107D9F712E0A2E0B1E001C01D92C1
:10007000AD32B107E1F7BED0A6C3C2CF86B129B178
:1000800030E02871307093E0220F331F9A95E1F72A
:100090008F73822B0895982F20910C012130A9F0A5
:1000A000213020F0223009F048C027C080910201A1
:1000B000981739F482E08093C00081E080930C01AE
:1000C000089583E08093C00038C0662381F5809353
:1000D000030182E080930C01913011F480E208C0AA
:1000E000923011F482E004C080E0933009F481E0A2
:1000F000809304011092050108956623C1F4E091F4
:100100000501F0E0E35FFE4F8083809105018F5F82
:10011000809305019091040180910501981721F4C5
:1001200081E08093060103C020930C010895109292
:100130000C0183E08093C000089510920C01089593
:10014000813011F490E208C0823011F492E004C0D2
:1001500090E0833009F491E0892F089517B85498FE
:10016000089582E084BD85BD80936E0086E587BDDD
:10017000789408951F920F920FB60F9211242F9327
:100180003F934F935F936F937F938F939F93AF931F
:10019000BF93EF93FF938091C6006091C0006170A0
:1001A0007ADFFF91EF91BF91AF919F918F917F91F6
:1001B0006F915F914F913F912F910F900FBE0F90D4
:1001C0001F9018951F920F920FB60F9211248F93C4
:1001D0009F9381E080930A01909100018091070133
:1001E000890F809307019F918F910F900FBE0F9001
:1001F0001F9018955F926F927F928F929F92AF920D
:10020000BF92CF92DF92EF92FF920F931F93CF9303
:10021000DF9317B854981DD2C4D2BED280E0B1D2B9
:1002200081E0AFD226B189B190E088719070A3E0EF
:10023000880F991FAA95E1F72F73282B20930201AD
:1002400080E0E82FF0E0DF01A35FBE4F1C92E35790
:10025000FE4F10828F5F8038A1F780E090E021E8A8
:10026000FC01E35FFD4F2083019680329105C1F7C9
:1002700082E084BD85BD80936E0086E587BD78945D
:10028000EE24FF2400E010E0F0E8BF2EE0E4AE2E04
:1002900070E2972E60E1862E58E0752E44E0642EC1
:1002A00032E0532ECC24C39426E0D22E9091060146
:1002B000913009F0F2C01092060180910301813063
:1002C00009F09FC0C0E0D0E09E012D5F3F4FF901D3
:1002D000E35FFE4F8081FE01E35FFD4F8083DE011F
:1002E0001196CE010296FC01E35FFE4F4081FD01B5
:1002F000E35FFD4F4083A35FBE4F4C91835F9D4FF3
:10030000FC014083FE01E35FFE4F8081235F3D4F90
:10031000F9018083FE013496DF01A35FBE4F8C910B
:10032000E35FFD4F8083FE013596DF01A35FBE4F83
:100330008C91E35FFD4F8083FE013696DF01A35F62
:10034000BE4F8C91E35FFD4F8083FE013796DF0146
:10035000A35FBE4F8C91E35FFD4F80839E01285FBA
:100360003F4FAE01455F5F4FFA01E35FFE4F808173
:10037000F901E35FFD4F8083DE011996CE010A96F5
:10038000FC01E35FFE4F6081FD01E35FFD4F608391
:10039000A35FBE4F6C91835F9D4FFC016083235F21
:1003A0003E4FF9018081435F5D4FFA018083FE017A
:1003B0003C96DF01A35FBE4F8C91E35FFD4F8083CE
:1003C000FE013D96DF01A35FBE4F8C91E35FFD4FC1
:1003D0008083FE013E96DF01A35FBE4F8C91E35FF9
:1003E000FD4F8083FE013F96DF01A35FBE4F8C91DE
:1003F000E35FFD4F80836096C032D10509F064CF82
:1004000046C0809103018230D1F480910D01982F74
:100410009770891BE82FF0E0292F30E0953038F0F5
:10042000E20FF31F80910E01E35FFD4F06C0E21B58
:10043000F30B80910E01E05FFD4F808328C0809117
:100440000301833021F580910D01E82FF0E0E830C1
:10045000F105D8F4E65EFF4F0994C092000117C081
:100460005092000114C06092000111C0709200010E
:100470000EC0809200010BC09092000108C0A092B3
:10048000000105C0B092000102C0909300011092DB
:100490000301109205011092040180910A0181303C
:1004A00009F004CF10920A0190910701992331F4C9
:1004B000EE24EA94FF24FA940FEF1FEF80910D02CF
:1004C000981710F0FEEFEF2280910E02981710F0AF
:1004D0008DEFE82280910F02981710F0EBEFEE22DB
:1004E00080911002981710F0F7EFEF22809111021F
:1004F000981710F08FEEE82280911202981710F0F2
:10050000EFEDEE2280911302981710F0FFEBEF222F
:1005100080911402981710F08FE7E822809115025D
:10052000981710F0EEEFFE2280911602981710F047
:10053000FDEFFF2280911702981710F08BEFF82241
:1005400080911802981710F0E7EFFE2280911902AF
:10055000981710F0FFEEFF2280911A02981710F002
:100560008FEDF82280911B02981710F0EFEBFE221E
:1005700080911C02981710F0FFE7FF2276D08D2D96
:100580008A95F1F780E06E2D4F2DBDD08D2D8A9587
:10059000F1F76DD09091070180911D02981708F036
:1005A0000E7F80911E02981708F00D7F80911F0228
:1005B000981708F00B7F80912002981708F0077FAA
:1005C00080912102981708F00F7E809122029817DF
:1005D00008F00F7D80912302981708F00F7B80911F
:1005E0002402981708F00F7780912502981708F0D9
:1005F0001E7F80912602981708F01D7F80912702A8
:10060000981708F01B7F80912802981708F0177F31
:1006100080912902981708F01F7E80912A0298176E
:1006200008F01F7D80912B02981708F01F7B8091A6
:100630002C02981708F01F7718D08D2D8A95F1F7A6
:1006400081E0602F412F5FD08D2D8A95F1F70FD07B
:100650002DCE84B1827C84B984B18D6284B980E569
:100660008CBD81E08DBD2A9A08952A9A08952A9812
:1006700008958EBD0DB407FEFDCF08951EBC0DB4C8
:1006800007FEFDCF8EB508958EBD0DB407FEFDCFDC
:100690008EB50895FC0190E007C080818EBD0DB439
:1006A00007FEFDCF9F5F31969617B8F30895FC01C2
:1006B00090E007C01EBC0DB407FEFDCF8EB5819340
:1006C0009F5F9617B8F30895CF93DF93EC01DB019A
:1006D00020E030E00CC0FE01E20FF31F80818EBDF0
:1006E0000DB407FEFDCF8EB58D932F5F3F4F2417BE
:1006F00090F3DF91CF9108951F93162FBADF812FCA
:10070000B8DF1F910895FF920F931F93162FF42EB9
:10071000082F0770ACDF000F802F8064AADF82E112
:10072000A8DF812FA6DF8F2DA4DF1F910F91FF90EF
:1007300008950F931F93162F082F077098DF000F4F
:10074000802F816496DF812F94DF98DF182F8DDF53
:10075000812F1F910F910895FF920F931F93162FD2
:10076000F42E082F077083DF000F802F806481DF55
:10077000812F7FDF8F2D7DDF78DF1F910F91FF901D
:1007800008951F93182F60E040E0E6DF812F61E0BD
:1007900040E0E2DF1F91089580E06AE048E2DCDF9C
:1007A000089583E08093C0008CE98093C10086E0C7
:1007B0008093C2001092C50085E18093C4005298D6
:0A07C000529A5A980895F894FFCF5A
:0207CA0001002C
:00000001FF
